:03000000020101F9
:0C010100787FE4F6D8FD758117020148F4
:100003007F807E251202381202707F781202557F9C
:07001300AF12026402027744
:10021800010C0002130000020A0000021100000293
:0F022800150000020F000002080000020D000088
:10023800758920AC06AD077E707F8012018DEFF4C2
:0D02480004F58B858B8DD2AFD2ABD28E2208
:0F0255008F0C750A00750B01E50B450A70FA2234
:07027000751500751601224F
:070277007511007512012250
:03001B0002001EC2
:10001E00C0E0C0D075D000C000C005C006C007E566
:10002E0012640145117012B2A020A002C2A230A02B
:10003E0008D2A275110075120020A04BE50B6401C9
:10004E00450A7043E50964014508703BD3E51494F5
:10005E0009E51364809480502E0514E51470020592
:10006E001314FFE50CFD3395E0FEEDA8070880059F
:10007E00C333CE33CED8F93392A2E51464094513B7
:10008E007005F50F751001E5106401450F700E2017
:10009E00A00BD2A2F50D750E01F50FF510E50B6450
:1000AE0001450A7016B2A0E50E6401450D700CF5FF
:1000BE000AF50BF50DF50EF513F51430A013E51634
:1000CE0064014515700BC2A2F515F516F5087509F4
:1000DE000130A012E51264014511700AD2A2F51189
:1000EE00F512F508F509D007D006D005D000D0D00E
:0300FE00D0E0321D
:0C0264008F17E4FF120255AF170202557D
:10010D00020003E493A3F8E493A34003F68001F205
:10011D0008DFF48029E493A3F85407240CC8C333F3
:10012D00C4540F4420C8834004F456800146F6DFC2
:10013D00E4800B0102040810204080900218E47E38
:10014D00019360BCA3FF543F30E509541FFEE493B7
:10015D00A360010ECF54C025E060A840B8E493A37E
:10016D00FAE493A3F8E493A3C8C582C8CAC583CAA9
:10017D00F0A3C8C582C8CAC583CADFE9DEE780BE61
:0102370000C6
:10018D00C2D5EC30E709B2D5E4C39DFDE49CFCEE8D
:10019D0030E715B2D5E4C39FFFE49EFE1201C3C341
:1001AD00E49DFDE49CFC80031201C330D507C3E43C
:0601BD009FFFE49EFE22FC
:1001C300BC000BBE0029EF8DF084FFADF022E4CC20
:1001D300F875F008EF2FFFEE33FEEC33FCEE9DECE9
:1001E300984005FCEE9DFE0FD5F0E9E4CEFD22ED2F
:1001F300F8F5F0EE8420D21CFEADF075F008EF2F79
:10020300FFED33FD4007985006D5F0F222C398FD69
:050213000FD5F0EA2206
:00000001FF
